{
  "_format": "hh-sol-artifact-1",
  "contractName": "ZKBadgeNFT",
  "sourceName": "contracts/ZKBadgeNFT.sol",
  "abi": [
    {
      "inputs": [
        {
          "internalType": "address",
          "name": "_verifier",
          "type": "address"
        }
      ],
      "stateMutability": "nonpayable",
      "type": "constructor"
    },
    {
      "inputs": [
        {
          "internalType": "address",
          "name": "sender",
          "type": "address"
        },
        {
          "internalType": "uint256",
          "name": "tokenId",
          "type": "uint256"
        },
        {
          "internalType": "address",
          "name": "owner",
          "type": "address"
        }
      ],
      "name": "ERC721IncorrectOwner",
      "type": "error"
    },
    {
      "inputs": [
        {
          "internalType": "address",
          "name": "operator",
          "type": "address"
        },
        {
          "internalType": "uint256",
          "name": "tokenId",
          "type": "uint256"
        }
      ],
      "name": "ERC721InsufficientApproval",
      "type": "error"
    },
    {
      "inputs": [
        {
          "internalType": "address",
          "name": "approver",
          "type": "address"
        }
      ],
      "name": "ERC721InvalidApprover",
      "type": "error"
    },
    {
      "inputs": [
        {
          "internalType": "address",
          "name": "operator",
          "type": "address"
        }
      ],
      "name": "ERC721InvalidOperator",
      "type": "error"
    },
    {
      "inputs": [
        {
          "internalType": "address",
          "name": "owner",
          "type": "address"
        }
      ],
      "name": "ERC721InvalidOwner",
      "type": "error"
    },
    {
      "inputs": [
        {
          "internalType": "address",
          "name": "receiver",
          "type": "address"
        }
      ],
      "name": "ERC721InvalidReceiver",
      "type": "error"
    },
    {
      "inputs": [
        {
          "internalType": "address",
          "name": "sender",
          "type": "address"
        }
      ],
      "name": "ERC721InvalidSender",
      "type": "error"
    },
    {
      "inputs": [
        {
          "internalType": "uint256",
          "name": "tokenId",
          "type": "uint256"
        }
      ],
      "name": "ERC721NonexistentToken",
      "type": "error"
    },
    {
      "anonymous": false,
      "inputs": [
        {
          "indexed": true,
          "internalType": "address",
          "name": "owner",
          "type": "address"
        },
        {
          "indexed": true,
          "internalType": "address",
          "name": "approved",
          "type": "address"
        },
        {
          "indexed": true,
          "internalType": "uint256",
          "name": "tokenId",
          "type": "uint256"
        }
      ],
      "name": "Approval",
      "type": "event"
    },
    {
      "anonymous": false,
      "inputs": [
        {
          "indexed": true,
          "internalType": "address",
          "name": "owner",
          "type": "address"
        },
        {
          "indexed": true,
          "internalType": "address",
          "name": "operator",
          "type": "address"
        },
        {
          "indexed": false,
          "internalType": "bool",
          "name": "approved",
          "type": "bool"
        }
      ],
      "name": "ApprovalForAll",
      "type": "event"
    },
    {
      "anonymous": false,
      "inputs": [
        {
          "indexed": false,
          "internalType": "uint256",
          "name": "_fromTokenId",
          "type": "uint256"
        },
        {
          "indexed": false,
          "internalType": "uint256",
          "name": "_toTokenId",
          "type": "uint256"
        }
      ],
      "name": "BatchMetadataUpdate",
      "type": "event"
    },
    {
      "anonymous": false,
      "inputs": [
        {
          "indexed": false,
          "internalType": "uint256",
          "name": "_tokenId",
          "type": "uint256"
        }
      ],
      "name": "MetadataUpdate",
      "type": "event"
    },
    {
      "anonymous": false,
      "inputs": [
        {
          "indexed": true,
          "internalType": "address",
          "name": "from",
          "type": "address"
        },
        {
          "indexed": true,
          "internalType": "address",
          "name": "to",
          "type": "address"
        },
        {
          "indexed": true,
          "internalType": "uint256",
          "name": "tokenId",
          "type": "uint256"
        }
      ],
      "name": "Transfer",
      "type": "event"
    },
    {
      "inputs": [
        {
          "internalType": "address",
          "name": "to",
          "type": "address"
        },
        {
          "internalType": "uint256",
          "name": "tokenId",
          "type": "uint256"
        }
      ],
      "name": "approve",
      "outputs": [],
      "stateMutability": "nonpayable",
      "type": "function"
    },
    {
      "inputs": [
        {
          "internalType": "uint256",
          "name": "",
          "type": "uint256"
        }
      ],
      "name": "badgeMonth",
      "outputs": [
        {
          "internalType": "string",
          "name": "",
          "type": "string"
        }
      ],
      "stateMutability": "view",
      "type": "function"
    },
    {
      "inputs": [
        {
          "internalType": "address",
          "name": "owner",
          "type": "address"
        }
      ],
      "name": "balanceOf",
      "outputs": [
        {
          "internalType": "uint256",
          "name": "",
          "type": "uint256"
        }
      ],
      "stateMutability": "view",
      "type": "function"
    },
    {
      "inputs": [
        {
          "internalType": "uint256",
          "name": "tokenId",
          "type": "uint256"
        }
      ],
      "name": "getApproved",
      "outputs": [
        {
          "internalType": "address",
          "name": "",
          "type": "address"
        }
      ],
      "stateMutability": "view",
      "type": "function"
    },
    {
      "inputs": [
        {
          "internalType": "uint256",
          "name": "tokenId",
          "type": "uint256"
        }
      ],
      "name": "getBadgeDate",
      "outputs": [
        {
          "internalType": "string",
          "name": "",
          "type": "string"
        }
      ],
      "stateMutability": "view",
      "type": "function"
    },
    {
      "inputs": [
        {
          "internalType": "address",
          "name": "owner",
          "type": "address"
        },
        {
          "internalType": "address",
          "name": "operator",
          "type": "address"
        }
      ],
      "name": "isApprovedForAll",
      "outputs": [
        {
          "internalType": "bool",
          "name": "",
          "type": "bool"
        }
      ],
      "stateMutability": "view",
      "type": "function"
    },
    {
      "inputs": [
        {
          "internalType": "uint256[2]",
          "name": "a",
          "type": "uint256[2]"
        },
        {
          "internalType": "uint256[2][2]",
          "name": "b",
          "type": "uint256[2][2]"
        },
        {
          "internalType": "uint256[2]",
          "name": "c",
          "type": "uint256[2]"
        },
        {
          "internalType": "uint256[3]",
          "name": "publicSignals",
          "type": "uint256[3]"
        },
        {
          "internalType": "string",
          "name": "artist1",
          "type": "string"
        },
        {
          "internalType": "string",
          "name": "artist2",
          "type": "string"
        },
        {
          "internalType": "string",
          "name": "artist3",
          "type": "string"
        },
        {
          "internalType": "string",
          "name": "svg",
          "type": "string"
        },
        {
          "internalType": "string",
          "name": "monthYear",
          "type": "string"
        }
      ],
      "name": "mintBadge",
      "outputs": [],
      "stateMutability": "nonpayable",
      "type": "function"
    },
    {
      "inputs": [],
      "name": "name",
      "outputs": [
        {
          "internalType": "string",
          "name": "",
          "type": "string"
        }
      ],
      "stateMutability": "view",
      "type": "function"
    },
    {
      "inputs": [
        {
          "internalType": "uint256",
          "name": "tokenId",
          "type": "uint256"
        }
      ],
      "name": "ownerOf",
      "outputs": [
        {
          "internalType": "address",
          "name": "",
          "type": "address"
        }
      ],
      "stateMutability": "view",
      "type": "function"
    },
    {
      "inputs": [
        {
          "internalType": "address",
          "name": "from",
          "type": "address"
        },
        {
          "internalType": "address",
          "name": "to",
          "type": "address"
        },
        {
          "internalType": "uint256",
          "name": "tokenId",
          "type": "uint256"
        }
      ],
      "name": "safeTransferFrom",
      "outputs": [],
      "stateMutability": "nonpayable",
      "type": "function"
    },
    {
      "inputs": [
        {
          "internalType": "address",
          "name": "from",
          "type": "address"
        },
        {
          "internalType": "address",
          "name": "to",
          "type": "address"
        },
        {
          "internalType": "uint256",
          "name": "tokenId",
          "type": "uint256"
        },
        {
          "internalType": "bytes",
          "name": "data",
          "type": "bytes"
        }
      ],
      "name": "safeTransferFrom",
      "outputs": [],
      "stateMutability": "nonpayable",
      "type": "function"
    },
    {
      "inputs": [
        {
          "internalType": "address",
          "name": "operator",
          "type": "address"
        },
        {
          "internalType": "bool",
          "name": "approved",
          "type": "bool"
        }
      ],
      "name": "setApprovalForAll",
      "outputs": [],
      "stateMutability": "nonpayable",
      "type": "function"
    },
    {
      "inputs": [
        {
          "internalType": "bytes4",
          "name": "interfaceId",
          "type": "bytes4"
        }
      ],
      "name": "supportsInterface",
      "outputs": [
        {
          "internalType": "bool",
          "name": "",
          "type": "bool"
        }
      ],
      "stateMutability": "view",
      "type": "function"
    },
    {
      "inputs": [],
      "name": "symbol",
      "outputs": [
        {
          "internalType": "string",
          "name": "",
          "type": "string"
        }
      ],
      "stateMutability": "view",
      "type": "function"
    },
    {
      "inputs": [],
      "name": "tokenCounter",
      "outputs": [
        {
          "internalType": "uint256",
          "name": "",
          "type": "uint256"
        }
      ],
      "stateMutability": "view",
      "type": "function"
    },
    {
      "inputs": [
        {
          "internalType": "uint256",
          "name": "tokenId",
          "type": "uint256"
        }
      ],
      "name": "tokenURI",
      "outputs": [
        {
          "internalType": "string",
          "name": "",
          "type": "string"
        }
      ],
      "stateMutability": "view",
      "type": "function"
    },
    {
      "inputs": [
        {
          "internalType": "address",
          "name": "from",
          "type": "address"
        },
        {
          "internalType": "address",
          "name": "to",
          "type": "address"
        },
        {
          "internalType": "uint256",
          "name": "tokenId",
          "type": "uint256"
        }
      ],
      "name": "transferFrom",
      "outputs": [],
      "stateMutability": "nonpayable",
      "type": "function"
    },
    {
      "inputs": [
        {
          "internalType": "bytes32",
          "name": "",
          "type": "bytes32"
        }
      ],
      "name": "usedProofs",
      "outputs": [
        {
          "internalType": "bool",
          "name": "",
          "type": "bool"
        }
      ],
      "stateMutability": "view",
      "type": "function"
    },
    {
      "inputs": [],
      "name": "verifier",
      "outputs": [
        {
          "internalType": "contract Groth16Verifier",
          "name": "",
          "type": "address"
        }
      ],
      "stateMutability": "view",
      "type": "function"
    }
  ],
  "bytecode": "0x608060405234801561001057600080fd5b50604051613cb4380380613cb483398181016040528101906100329190610172565b6040518060400160405280600c81526020017f50726f6f666f6654756e657300000000000000000000000000000000000000008152506040518060400160405280600381526020017f506f54000000000000000000000000000000000000000000000000000000000081525081600090816100ad91906103ef565b5080600190816100bd91906103ef565b50505080600760006101000a81548173ffffffffffffffffffffffffffffffffffffffff021916908373ffffffffffffffffffffffffffffffffffffffff1602179055506000600a81905550506104c1565b600080fd5b600073ffffffffffffffffffffffffffffffffffffffff82169050919050565b600061013f82610114565b9050919050565b61014f81610134565b811461015a57600080fd5b50565b60008151905061016c81610146565b92915050565b6000602082840312156101885761018761010f565b5b60006101968482850161015d565b91505092915050565b600081519050919050565b7f4e487b7100000000000000000000000000000000000000000000000000000000600052604160045260246000fd5b7f4e487b7100000000000000000000000000000000000000000000000000000000600052602260045260246000fd5b6000600282049050600182168061022057607f821691505b602082108103610233576102326101d9565b5b50919050565b60008190508160005260206000209050919050565b60006020601f8301049050919050565b600082821b905092915050565b60006008830261029b7fffffffffffffffffffffffffffffffffffffffffffffffffffffffffffffffff8261025e565b6102a5868361025e565b95508019841693508086168417925050509392505050565b6000819050919050565b6000819050919050565b60006102ec6102e76102e2846102bd565b6102c7565b6102bd565b9050919050565b6000819050919050565b610306836102d1565b61031a610312826102f3565b84845461026b565b825550505050565b600090565b61032f610322565b61033a8184846102fd565b505050565b5b8181101561035e57610353600082610327565b600181019050610340565b5050565b601f8211156103a35761037481610239565b61037d8461024e565b8101602085101561038c578190505b6103a06103988561024e565b83018261033f565b50505b505050565b600082821c905092915050565b60006103c6600019846008026103a8565b1980831691505092915050565b60006103df83836103b5565b9150826002028217905092915050565b6103f88261019f565b67ffffffffffffffff811115610411576104106101aa565b5b61041b8254610208565b610426828285610362565b600060209050601f8311600181146104595760008415610447578287015190505b61045185826103d3565b8655506104b9565b601f19841661046786610239565b60005b8281101561048f5784890151825560018201915060208501945060208101905061046a565b868310156104ac57848901516104a8601f8916826103b5565b8355505b6001600288020188555050505b505050505050565b6137e4806104d06000396000f3fe608060405234801561001057600080fd5b50600436106101215760003560e01c8063743439ac116100ad578063c43b0c7f11610071578063c43b0c7f1461032c578063c87b56dd1461035c578063d082e3811461038c578063e1af3be2146103aa578063e985e9c5146103c657610121565b8063743439ac1461027657806395d89b41146102a6578063a22cb465146102c4578063b88d4fde146102e0578063c30a0f25146102fc57610121565b806323b872dd116100f457806323b872dd146101c05780632b7ac3f3146101dc57806342842e0e146101fa5780636352211e1461021657806370a082311461024657610121565b806301ffc9a71461012657806306fdde0314610156578063081812fc14610174578063095ea7b3146101a4575b600080fd5b610140600480360381019061013b9190611eac565b6103f6565b60405161014d9190611ef4565b60405180910390f35b61015e610457565b60405161016b9190611f9f565b60405180910390f35b61018e60048036038101906101899190611ff7565b6104e9565b60405161019b9190612065565b60405180910390f35b6101be60048036038101906101b991906120ac565b610505565b005b6101da60048036038101906101d591906120ec565b61051b565b005b6101e461061d565b6040516101f1919061219e565b60405180910390f35b610214600480360381019061020f91906120ec565b610643565b005b610230600480360381019061022b9190611ff7565b610663565b60405161023d9190612065565b60405180910390f35b610260600480360381019061025b91906121b9565b610675565b60405161026d91906121f5565b60405180910390f35b610290600480360381019061028b9190611ff7565b61072f565b60405161029d9190611f9f565b60405180910390f35b6102ae6107d4565b6040516102bb9190611f9f565b60405180910390f35b6102de60048036038101906102d9919061223c565b610866565b005b6102fa60048036038101906102f591906123b1565b61087c565b005b6103166004803603810190610311919061246a565b6108a1565b6040516103239190611ef4565b60405180910390f35b61034660048036038101906103419190611ff7565b6108c1565b6040516103539190611f9f565b60405180910390f35b61037660048036038101906103719190611ff7565b610961565b6040516103839190611f9f565b60405180910390f35b610394610a74565b6040516103a191906121f5565b60405180910390f35b6103c460048036038101906103bf9190612750565b610a7a565b005b6103e060048036038101906103db91906128ab565b610d09565b6040516103ed9190611ef4565b60405180910390f35b6000634906490660e01b7bffffffffffffffffffffffffffffffffffffffffffffffffffffffff1916827bffffffffffffffffffffffffffffffffffffffffffffffffffffffff19161480610450575061044f82610d9d565b5b9050919050565b6060600080546104669061291a565b80601f01602080910402602001604051908101604052809291908181526020018280546104929061291a565b80156104df5780601f106104b4576101008083540402835291602001916104df565b820191906000526020600020905b8154815290600101906020018083116104c257829003601f168201915b5050505050905090565b60006104f482610e7f565b506104fe82610f07565b9050919050565b6105178282610512610f44565b610f4c565b5050565b600073ffffffffffffffffffffffffffffffffffffffff168273ffffffffffffffffffffffffffffffffffffffff160361058d5760006040517f64a0ae920000000000000000000000000000000000000000000000000000000081526004016105849190612065565b60405180910390fd5b60006105a1838361059c610f44565b610f5e565b90508373ffffffffffffffffffffffffffffffffffffffff168173ffffffffffffffffffffffffffffffffffffffff1614610617578382826040517f64283d7b00000000000000000000000000000000000000000000000000000000815260040161060e9392919061294b565b60405180910390fd5b50505050565b600760009054906101000a900473ffffffffffffffffffffffffffffffffffffffff1681565b61065e8383836040518060200160405280600081525061087c565b505050565b600061066e82610e7f565b9050919050565b60008073ffffffffffffffffffffffffffffffffffffffff168273ffffffffffffffffffffffffffffffffffffffff16036106e85760006040517f89c62b640000000000000000000000000000000000000000000000000000000081526004016106df9190612065565b60405180910390fd5b600360008373ffffffffffffffffffffffffffffffffffffffff1673ffffffffffffffffffffffffffffffffffffffff168152602001908152602001600020549050919050565b606060096000838152602001908152602001600020805461074f9061291a565b80601f016020809104026020016040519081016040528092919081815260200182805461077b9061291a565b80156107c85780601f1061079d576101008083540402835291602001916107c8565b820191906000526020600020905b8154815290600101906020018083116107ab57829003601f168201915b50505050509050919050565b6060600180546107e39061291a565b80601f016020809104026020016040519081016040528092919081815260200182805461080f9061291a565b801561085c5780601f106108315761010080835404028352916020019161085c565b820191906000526020600020905b81548152906001019060200180831161083f57829003601f168201915b5050505050905090565b610878610871610f44565b8383611178565b5050565b61088784848461051b565b61089b610892610f44565b858585856112e7565b50505050565b60086020528060005260406000206000915054906101000a900460ff1681565b600960205280600052604060002060009150905080546108e09061291a565b80601f016020809104026020016040519081016040528092919081815260200182805461090c9061291a565b80156109595780601f1061092e57610100808354040283529160200191610959565b820191906000526020600020905b81548152906001019060200180831161093c57829003601f168201915b505050505081565b606061096c82610e7f565b50600060066000848152602001908152602001600020805461098d9061291a565b80601f01602080910402602001604051908101604052809291908181526020018280546109b99061291a565b8015610a065780601f106109db57610100808354040283529160200191610a06565b820191906000526020600020905b8154815290600101906020018083116109e957829003601f168201915b505050505090506000610a17611498565b90506000815103610a2c578192505050610a6f565b600082511115610a61578082604051602001610a499291906129be565b60405160208183030381529060405292505050610a6f565b610a6a846114af565b925050505b919050565b600a5481565b600086604051602001610a8d9190612a8d565b6040516020818303038152906040528051906020012090506008600082815260200190815260200160002060009054906101000a900460ff1615610b06576040517f08c379a0000000000000000000000000000000000000000000000000000000008152600401610afd90612af4565b60405180910390fd5b600760009054906101000a900473ffffffffffffffffffffffffffffffffffffffff1673ffffffffffffffffffffffffffffffffffffffff166311479fea8b8b8b8b6040518563ffffffff1660e01b8152600401610b679493929190612d1f565b602060405180830381865afa158015610b84573d6000803e3d6000fd5b505050506040513d601f19601f82011682018060405250810190610ba89190612d7b565b610be7576040517f08c379a0000000000000000000000000000000000000000000000000000000008152600401610bde90612df4565b60405180910390fd5b60016008600083815260200190815260200160002060006101000a81548160ff0219169083151502179055506000610c1e84611518565b9050600081604051602001610c339190612e60565b60405160208183030381529060405290506000610c80610c54600a54611545565b8a8a8a86604051602001610c6c95949392919061317a565b604051602081830303815290604052611518565b9050600081604051602001610c95919061327f565b6040516020818303038152906040529050610cb233600a54611613565b610cbe600a548261170c565b8560096000600a5481526020019081526020016000209081610ce09190613443565b50600a6000815480929190610cf490613544565b91905055505050505050505050505050505050565b6000600560008473ffffffffffffffffffffffffffffffffffffffff1673ffffffffffffffffffffffffffffffffffffffff16815260200190815260200160002060008373ffffffffffffffffffffffffffffffffffffffff1673ffffffffffffffffffffffffffffffffffffffff16815260200190815260200160002060009054906101000a900460ff16905092915050565b60007f80ac58cd000000000000000000000000000000000000000000000000000000007bffffffffffffffffffffffffffffffffffffffffffffffffffffffff1916827bffffffffffffffffffffffffffffffffffffffffffffffffffffffff19161480610e6857507f5b5e139f000000000000000000000000000000000000000000000000000000007bffffffffffffffffffffffffffffffffffffffffffffffffffffffff1916827bffffffffffffffffffffffffffffffffffffffffffffffffffffffff1916145b80610e785750610e7782611768565b5b9050919050565b600080610e8b836117d2565b9050600073ffffffffffffffffffffffffffffffffffffffff168173ffffffffffffffffffffffffffffffffffffffff1603610efe57826040517f7e273289000000000000000000000000000000000000000000000000000000008152600401610ef591906121f5565b60405180910390fd5b80915050919050565b60006004600083815260200190815260200160002060009054906101000a900473ffffffffffffffffffffffffffffffffffffffff169050919050565b600033905090565b610f59838383600161180f565b505050565b600080610f6a846117d2565b9050600073ffffffffffffffffffffffffffffffffffffffff168373ffffffffffffffffffffffffffffffffffffffff1614610fac57610fab8184866119d4565b5b600073ffffffffffffffffffffffffffffffffffffffff168173ffffffffffffffffffffffffffffffffffffffff161461103d57610fee60008560008061180f565b6001600360008373ffffffffffffffffffffffffffffffffffffffff1673ffffffffffffffffffffffffffffffffffffffff168152602001908152602001600020600082825403925050819055505b600073ffffffffffffffffffffffffffffffffffffffff168573ffffffffffffffffffffffffffffffffffffffff16146110c0576001600360008773ffffffffffffffffffffffffffffffffffffffff1673ffffffffffffffffffffffffffffffffffffffff168152602001908152602001600020600082825401925050819055505b846002600086815260200190815260200160002060006101000a81548173ffffffffffffffffffffffffffffffffffffffff021916908373ffffffffffffffffffffffffffffffffffffffff160217905550838573ffffffffffffffffffffffffffffffffffffffff168273ffffffffffffffffffffffffffffffffffffffff167fddf252ad1be2c89b69c2b068fc378daa952ba7f163c4a11628f55a4df523b3ef60405160405180910390a4809150509392505050565b600073ffffffffffffffffffffffffffffffffffffffff168273ffffffffffffffffffffffffffffffffffffffff16036111e957816040517f5b08ba180000000000000000000000000000000000000000000000000000000081526004016111e09190612065565b60405180910390fd5b80600560008573ffffffffffffffffffffffffffffffffffffffff1673ffffffffffffffffffffffffffffffffffffffff16815260200190815260200160002060008473ffffffffffffffffffffffffffffffffffffffff1673ffffffffffffffffffffffffffffffffffffffff16815260200190815260200160002060006101000a81548160ff0219169083151502179055508173ffffffffffffffffffffffffffffffffffffffff168373ffffffffffffffffffffffffffffffffffffffff167f17307eab39ab6107e8899845ad3d59bd9653f200f220920489ca2b5937696c31836040516112da9190611ef4565b60405180910390a3505050565b60008373ffffffffffffffffffffffffffffffffffffffff163b1115611491578273ffffffffffffffffffffffffffffffffffffffff1663150b7a02868685856040518563ffffffff1660e01b815260040161134694939291906135e1565b6020604051808303816000875af192505050801561138257506040513d601f19601f8201168201806040525081019061137f9190613642565b60015b611406573d80600081146113b2576040519150601f19603f3d011682016040523d82523d6000602084013e6113b7565b606091505b5060008151036113fe57836040517f64a0ae920000000000000000000000000000000000000000000000000000000081526004016113f59190612065565b60405180910390fd5b805181602001fd5b63150b7a0260e01b7bffffffffffffffffffffffffffffffffffffffffffffffffffffffff1916817bffffffffffffffffffffffffffffffffffffffffffffffffffffffff19161461148f57836040517f64a0ae920000000000000000000000000000000000000000000000000000000081526004016114869190612065565b60405180910390fd5b505b5050505050565b606060405180602001604052806000815250905090565b60606114ba82610e7f565b5060006114c5611498565b905060008151116114e55760405180602001604052806000815250611510565b806114ef84611545565b6040516020016115009291906129be565b6040516020818303038152906040525b915050919050565b606061153e8260405180606001604052806040815260200161376f604091396001611a98565b9050919050565b60606000600161155484611c2c565b01905060008167ffffffffffffffff81111561157357611572612286565b5b6040519080825280601f01601f1916602001820160405280156115a55781602001600182028036833780820191505090505b509050600082602001820190505b600115611608578080600190039150507f3031323334353637383961626364656600000000000000000000000000000000600a86061a8153600a85816115fc576115fb61366f565b5b049450600085036115b3575b819350505050919050565b600073ffffffffffffffffffffffffffffffffffffffff168273ffffffffffffffffffffffffffffffffffffffff16036116855760006040517f64a0ae9200000000000000000000000000000000000000000000000000000000815260040161167c9190612065565b60405180910390fd5b600061169383836000610f5e565b9050600073ffffffffffffffffffffffffffffffffffffffff168173ffffffffffffffffffffffffffffffffffffffff16146117075760006040517f73c6ac6e0000000000000000000000000000000000000000000000000000000081526004016116fe9190612065565b60405180910390fd5b505050565b8060066000848152602001908152602001600020908161172c9190613443565b507ff8e1a15aba9398e019f0b49df1a4fde98ee17ae345cb5f6b5e2c27f5033e8ce78260405161175c91906121f5565b60405180910390a15050565b60007f01ffc9a7000000000000000000000000000000000000000000000000000000007bffffffffffffffffffffffffffffffffffffffffffffffffffffffff1916827bffffffffffffffffffffffffffffffffffffffffffffffffffffffff1916149050919050565b60006002600083815260200190815260200160002060009054906101000a900473ffffffffffffffffffffffffffffffffffffffff169050919050565b80806118485750600073ffffffffffffffffffffffffffffffffffffffff168273ffffffffffffffffffffffffffffffffffffffff1614155b1561197c57600061185884610e7f565b9050600073ffffffffffffffffffffffffffffffffffffffff168373ffffffffffffffffffffffffffffffffffffffff16141580156118c357508273ffffffffffffffffffffffffffffffffffffffff168173ffffffffffffffffffffffffffffffffffffffff1614155b80156118d657506118d48184610d09565b155b1561191857826040517fa9fbf51f00000000000000000000000000000000000000000000000000000000815260040161190f9190612065565b60405180910390fd5b811561197a57838573ffffffffffffffffffffffffffffffffffffffff168273ffffffffffffffffffffffffffffffffffffffff167f8c5be1e5ebec7d5bd14f71427d1e84f3dd0314c0f7b2291e5b200ac8c7c3b92560405160405180910390a45b505b836004600085815260200190815260200160002060006101000a81548173ffffffffffffffffffffffffffffffffffffffff021916908373ffffffffffffffffffffffffffffffffffffffff16021790555050505050565b6119df838383611d7f565b611a9357600073ffffffffffffffffffffffffffffffffffffffff168373ffffffffffffffffffffffffffffffffffffffff1603611a5457806040517f7e273289000000000000000000000000000000000000000000000000000000008152600401611a4b91906121f5565b60405180910390fd5b81816040517f177e802f000000000000000000000000000000000000000000000000000000008152600401611a8a92919061369e565b60405180910390fd5b505050565b60606000845103611aba57604051806020016040528060008152509050611c25565b600082611aec576003600286516004611ad391906136c7565b611add9190613709565b611ae7919061373d565b611b13565b600360028651611afc9190613709565b611b06919061373d565b6004611b1291906136c7565b5b905060008167ffffffffffffffff811115611b3157611b30612286565b5b6040519080825280601f01601f191660200182016040528015611b635781602001600182028036833780820191505090505b50905060018501602082018788518901602081018051600082525b82841015611bd9576003840193508351603f8160121c168701518653600186019550603f81600c1c168701518653600186019550603f8160061c168701518653600186019550603f8116870151865360018601955050611b7e565b8082528915611c195760038c510660018114611bfc5760028114611c0f57611c17565b603d6001870353603d6002870353611c17565b603d60018703535b505b50505050505080925050505b9392505050565b600080600090507a184f03e93ff9f4daa797ed6e38ed64bf6a1f0100000000000000008310611c8a577a184f03e93ff9f4daa797ed6e38ed64bf6a1f0100000000000000008381611c8057611c7f61366f565b5b0492506040810190505b6d04ee2d6d415b85acef81000000008310611cc7576d04ee2d6d415b85acef81000000008381611cbd57611cbc61366f565b5b0492506020810190505b662386f26fc100008310611cf657662386f26fc100008381611cec57611ceb61366f565b5b0492506010810190505b6305f5e1008310611d1f576305f5e1008381611d1557611d1461366f565b5b0492506008810190505b6127108310611d44576127108381611d3a57611d3961366f565b5b0492506004810190505b60648310611d675760648381611d5d57611d5c61366f565b5b0492506002810190505b600a8310611d76576001810190505b80915050919050565b60008073ffffffffffffffffffffffffffffffffffffffff168373ffffffffffffffffffffffffffffffffffffffff1614158015611e3757508273ffffffffffffffffffffffffffffffffffffffff168473ffffffffffffffffffffffffffffffffffffffff161480611df85750611df78484610d09565b5b80611e3657508273ffffffffffffffffffffffffffffffffffffffff16611e1e83610f07565b73ffffffffffffffffffffffffffffffffffffffff16145b5b90509392505050565b6000604051905090565b600080fd5b600080fd5b60007fffffffff0000000000000000000000000000000000000000000000000000000082169050919050565b611e8981611e54565b8114611e9457600080fd5b50565b600081359050611ea681611e80565b92915050565b600060208284031215611ec257611ec1611e4a565b5b6000611ed084828501611e97565b91505092915050565b60008115159050919050565b611eee81611ed9565b82525050565b6000602082019050611f096000830184611ee5565b92915050565b600081519050919050565b600082825260208201905092915050565b60005b83811015611f49578082015181840152602081019050611f2e565b60008484015250505050565b6000601f19601f8301169050919050565b6000611f7182611f0f565b611f7b8185611f1a565b9350611f8b818560208601611f2b565b611f9481611f55565b840191505092915050565b60006020820190508181036000830152611fb98184611f66565b905092915050565b6000819050919050565b611fd481611fc1565b8114611fdf57600080fd5b50565b600081359050611ff181611fcb565b92915050565b60006020828403121561200d5761200c611e4a565b5b600061201b84828501611fe2565b91505092915050565b600073ffffffffffffffffffffffffffffffffffffffff82169050919050565b600061204f82612024565b9050919050565b61205f81612044565b82525050565b600060208201905061207a6000830184612056565b92915050565b61208981612044565b811461209457600080fd5b50565b6000813590506120a681612080565b92915050565b600080604083850312156120c3576120c2611e4a565b5b60006120d185828601612097565b92505060206120e285828601611fe2565b9150509250929050565b60008060006060848603121561210557612104611e4a565b5b600061211386828701612097565b935050602061212486828701612097565b925050604061213586828701611fe2565b9150509250925092565b6000819050919050565b600061216461215f61215a84612024565b61213f565b612024565b9050919050565b600061217682612149565b9050919050565b60006121888261216b565b9050919050565b6121988161217d565b82525050565b60006020820190506121b3600083018461218f565b92915050565b6000602082840312156121cf576121ce611e4a565b5b60006121dd84828501612097565b91505092915050565b6121ef81611fc1565b82525050565b600060208201905061220a60008301846121e6565b92915050565b61221981611ed9565b811461222457600080fd5b50565b60008135905061223681612210565b92915050565b6000806040838503121561225357612252611e4a565b5b600061226185828601612097565b925050602061227285828601612227565b9150509250929050565b600080fd5b600080fd5b7f4e487b7100000000000000000000000000000000000000000000000000000000600052604160045260246000fd5b6122be82611f55565b810181811067ffffffffffffffff821117156122dd576122dc612286565b5b80604052505050565b60006122f0611e40565b90506122fc82826122b5565b919050565b600067ffffffffffffffff82111561231c5761231b612286565b5b61232582611f55565b9050602081019050919050565b82818337600083830152505050565b600061235461234f84612301565b6122e6565b9050828152602081018484840111156123705761236f612281565b5b61237b848285612332565b509392505050565b600082601f8301126123985761239761227c565b5b81356123a8848260208601612341565b91505092915050565b600080600080608085870312156123cb576123ca611e4a565b5b60006123d987828801612097565b94505060206123ea87828801612097565b93505060406123fb87828801611fe2565b925050606085013567ffffffffffffffff81111561241c5761241b611e4f565b5b61242887828801612383565b91505092959194509250565b6000819050919050565b61244781612434565b811461245257600080fd5b50565b6000813590506124648161243e565b92915050565b6000602082840312156124805761247f611e4a565b5b600061248e84828501612455565b91505092915050565b600067ffffffffffffffff8211156124b2576124b1612286565b5b602082029050919050565b600080fd5b60006124d56124d084612497565b6122e6565b905080602084028301858111156124ef576124ee6124bd565b5b835b8181101561251857806125048882611fe2565b8452602084019350506020810190506124f1565b5050509392505050565b600082601f8301126125375761253661227c565b5b60026125448482856124c2565b91505092915050565b600067ffffffffffffffff82111561256857612567612286565b5b602082029050919050565b60006125866125818461254d565b6122e6565b905080604084028301858111156125a05761259f6124bd565b5b835b818110156125c957806125b58882612522565b8452602084019350506040810190506125a2565b5050509392505050565b600082601f8301126125e8576125e761227c565b5b60026125f5848285612573565b91505092915050565b600067ffffffffffffffff82111561261957612618612286565b5b602082029050919050565b6000612637612632846125fe565b6122e6565b90508060208402830185811115612651576126506124bd565b5b835b8181101561267a57806126668882611fe2565b845260208401935050602081019050612653565b5050509392505050565b600082601f8301126126995761269861227c565b5b60036126a6848285612624565b91505092915050565b600067ffffffffffffffff8211156126ca576126c9612286565b5b6126d382611f55565b9050602081019050919050565b60006126f36126ee846126af565b6122e6565b90508281526020810184848401111561270f5761270e612281565b5b61271a848285612332565b509392505050565b600082601f8301126127375761273661227c565b5b81356127478482602086016126e0565b91505092915050565b60008060008060008060008060006102008a8c03121561277357612772611e4a565b5b60006127818c828d01612522565b99505060406127928c828d016125d3565b98505060c06127a38c828d01612522565b9750506101006127b58c828d01612684565b9650506101608a013567ffffffffffffffff8111156127d7576127d6611e4f565b5b6127e38c828d01612722565b9550506101808a013567ffffffffffffffff81111561280557612804611e4f565b5b6128118c828d01612722565b9450506101a08a013567ffffffffffffffff81111561283357612832611e4f565b5b61283f8c828d01612722565b9350506101c08a013567ffffffffffffffff81111561286157612860611e4f565b5b61286d8c828d01612722565b9250506101e08a013567ffffffffffffffff81111561288f5761288e611e4f565b5b61289b8c828d01612722565b9150509295985092959850929598565b600080604083850312156128c2576128c1611e4a565b5b60006128d085828601612097565b92505060206128e185828601612097565b9150509250929050565b7f4e487b7100000000000000000000000000000000000000000000000000000000600052602260045260246000fd5b6000600282049050600182168061293257607f821691505b602082108103612945576129446128eb565b5b50919050565b60006060820190506129606000830186612056565b61296d60208301856121e6565b61297a6040830184612056565b949350505050565b600081905092915050565b600061299882611f0f565b6129a28185612982565b93506129b2818560208601611f2b565b80840191505092915050565b60006129ca828561298d565b91506129d6828461298d565b91508190509392505050565b600060039050919050565b600081905092915050565b6000819050919050565b612a0b81611fc1565b82525050565b6000612a1d8383612a02565b60208301905092915050565b6000602082019050919050565b612a3f816129e2565b612a4981846129ed565b9250612a54826129f8565b8060005b83811015612a85578151612a6c8782612a11565b9650612a7783612a29565b925050600181019050612a58565b505050505050565b6000612a998284612a36565b60608201915081905092915050565b7f50726f6f6620616c726561647920757365640000000000000000000000000000600082015250565b6000612ade601283611f1a565b9150612ae982612aa8565b602082019050919050565b60006020820190508181036000830152612b0d81612ad1565b9050919050565b600060029050919050565b600081905092915050565b6000819050919050565b612b3d81611fc1565b82525050565b6000612b4f8383612b34565b60208301905092915050565b6000602082019050919050565b612b7181612b14565b612b7b8184612b1f565b9250612b8682612b2a565b8060005b83811015612bb7578151612b9e8782612b43565b9650612ba983612b5b565b925050600181019050612b8a565b505050505050565b600060029050919050565b600081905092915050565b6000819050919050565b600081905092915050565b612bf381612b14565b612bfd8184612bdf565b9250612c0882612b2a565b8060005b83811015612c39578151612c208782612b43565b9650612c2b83612b5b565b925050600181019050612c0c565b505050505050565b6000612c4d8383612bea565b60408301905092915050565b6000602082019050919050565b612c6f81612bbf565b612c798184612bca565b9250612c8482612bd5565b8060005b83811015612cb5578151612c9c8782612c41565b9650612ca783612c59565b925050600181019050612c88565b505050505050565b600081905092915050565b612cd1816129e2565b612cdb8184612cbd565b9250612ce6826129f8565b8060005b83811015612d17578151612cfe8782612b43565b9650612d0983612a29565b925050600181019050612cea565b505050505050565b600061016082019050612d356000830187612b68565b612d426040830186612c66565b612d4f60c0830185612b68565b612d5d610100830184612cc8565b95945050505050565b600081519050612d7581612210565b92915050565b600060208284031215612d9157612d90611e4a565b5b6000612d9f84828501612d66565b91505092915050565b7f496e76616c69642070726f6f6600000000000000000000000000000000000000600082015250565b6000612dde600d83611f1a565b9150612de982612da8565b602082019050919050565b60006020820190508181036000830152612e0d81612dd1565b9050919050565b7f646174613a696d6167652f7376672b786d6c3b6261736536342c000000000000600082015250565b6000612e4a601a83612982565b9150612e5582612e14565b601a82019050919050565b6000612e6b82612e3d565b9150612e77828461298d565b915081905092915050565b7f7b226e616d65223a202250726f6f666f6654756e657320426164676520230000600082015250565b6000612eb8601e83612982565b9150612ec382612e82565b601e82019050919050565b7f222c20226465736372697074696f6e223a2022546f702041727469737473222c60008201527f202261747472696275746573223a205b00000000000000000000000000000000602082015250565b6000612f2a603083612982565b9150612f3582612ece565b603082019050919050565b7f7b2274726169745f74797065223a20224172746973742031222c202276616c7560008201527f65223a2022000000000000000000000000000000000000000000000000000000602082015250565b6000612f9c602583612982565b9150612fa782612f40565b602582019050919050565b7f227d2c0000000000000000000000000000000000000000000000000000000000600082015250565b6000612fe8600383612982565b9150612ff382612fb2565b600382019050919050565b7f7b2274726169745f74797065223a20224172746973742032222c202276616c7560008201527f65223a2022000000000000000000000000000000000000000000000000000000602082015250565b600061305a602583612982565b915061306582612ffe565b602582019050919050565b7f7b2274726169745f74797065223a20224172746973742033222c202276616c7560008201527f65223a2022000000000000000000000000000000000000000000000000000000602082015250565b60006130cc602583612982565b91506130d782613070565b602582019050919050565b7f227d000000000000000000000000000000000000000000000000000000000000600082015250565b6000613118600283612982565b9150613123826130e2565b600282019050919050565b7f5d2c2022696d616765223a202200000000000000000000000000000000000000600082015250565b6000613164600d83612982565b915061316f8261312e565b600d82019050919050565b600061318582612eab565b9150613191828861298d565b915061319c82612f1d565b91506131a782612f8f565b91506131b3828761298d565b91506131be82612fdb565b91506131c98261304d565b91506131d5828661298d565b91506131e082612fdb565b91506131eb826130bf565b91506131f7828561298d565b91506132028261310b565b915061320d82613157565b9150613219828461298d565b91506132248261310b565b91508190509695505050505050565b7f646174613a6170706c69636174696f6e2f6a736f6e3b6261736536342c000000600082015250565b6000613269601d83612982565b915061327482613233565b601d82019050919050565b600061328a8261325c565b9150613296828461298d565b915081905092915050565b60008190508160005260206000209050919050565b60006020601f8301049050919050565b600082821b905092915050565b6000600883026133037fffffffffffffffffffffffffffffffffffffffffffffffffffffffffffffffff826132c6565b61330d86836132c6565b95508019841693508086168417925050509392505050565b600061334061333b61333684611fc1565b61213f565b611fc1565b9050919050565b6000819050919050565b61335a83613325565b61336e61336682613347565b8484546132d3565b825550505050565b600090565b613383613376565b61338e818484613351565b505050565b5b818110156133b2576133a760008261337b565b600181019050613394565b5050565b601f8211156133f7576133c8816132a1565b6133d1846132b6565b810160208510156133e0578190505b6133f46133ec856132b6565b830182613393565b50505b505050565b600082821c905092915050565b600061341a600019846008026133fc565b1980831691505092915050565b60006134338383613409565b9150826002028217905092915050565b61344c82611f0f565b67ffffffffffffffff81111561346557613464612286565b5b61346f825461291a565b61347a8282856133b6565b600060209050601f8311600181146134ad576000841561349b578287015190505b6134a58582613427565b86555061350d565b601f1984166134bb866132a1565b60005b828110156134e3578489015182556001820191506020850194506020810190506134be565b8683101561350057848901516134fc601f891682613409565b8355505b6001600288020188555050505b505050505050565b7f4e487b7100000000000000000000000000000000000000000000000000000000600052601160045260246000fd5b600061354f82611fc1565b91507fffffffffffffffffffffffffffffffffffffffffffffffffffffffffffffffff820361358157613580613515565b5b600182019050919050565b600081519050919050565b600082825260208201905092915050565b60006135b38261358c565b6135bd8185613597565b93506135cd818560208601611f2b565b6135d681611f55565b840191505092915050565b60006080820190506135f66000830187612056565b6136036020830186612056565b61361060408301856121e6565b818103606083015261362281846135a8565b905095945050505050565b60008151905061363c81611e80565b92915050565b60006020828403121561365857613657611e4a565b5b60006136668482850161362d565b91505092915050565b7f4e487b7100000000000000000000000000000000000000000000000000000000600052601260045260246000fd5b60006040820190506136b36000830185612056565b6136c060208301846121e6565b9392505050565b60006136d282611fc1565b91506136dd83611fc1565b92508282026136eb81611fc1565b9150828204841483151761370257613701613515565b5b5092915050565b600061371482611fc1565b915061371f83611fc1565b925082820190508082111561373757613736613515565b5b92915050565b600061374882611fc1565b915061375383611fc1565b9250826137635761376261366f565b5b82820490509291505056fe4142434445464748494a4b4c4d4e4f505152535455565758595a6162636465666768696a6b6c6d6e6f707172737475767778797a303132333435363738392b2fa2646970667358221220c4d004a24ee31271eadf7799c29fdb0712dbc97b29890c514d437943616e22e364736f6c634300081c0033",
  "linkReferences": {},
  "deployedLinkReferences": {}
}