{
  "_format": "hh-sol-artifact-1",
  "contractName": "ZKBadgeNFT",
  "sourceName": "contracts/ZKBadgeNFT.sol",
  "abi": [
    {
      "inputs": [
        {
          "internalType": "address",
          "name": "_verifier",
          "type": "address"
        }
      ],
      "stateMutability": "nonpayable",
      "type": "constructor"
    },
    {
      "inputs": [
        {
          "internalType": "address",
          "name": "sender",
          "type": "address"
        },
        {
          "internalType": "uint256",
          "name": "tokenId",
          "type": "uint256"
        },
        {
          "internalType": "address",
          "name": "owner",
          "type": "address"
        }
      ],
      "name": "ERC721IncorrectOwner",
      "type": "error"
    },
    {
      "inputs": [
        {
          "internalType": "address",
          "name": "operator",
          "type": "address"
        },
        {
          "internalType": "uint256",
          "name": "tokenId",
          "type": "uint256"
        }
      ],
      "name": "ERC721InsufficientApproval",
      "type": "error"
    },
    {
      "inputs": [
        {
          "internalType": "address",
          "name": "approver",
          "type": "address"
        }
      ],
      "name": "ERC721InvalidApprover",
      "type": "error"
    },
    {
      "inputs": [
        {
          "internalType": "address",
          "name": "operator",
          "type": "address"
        }
      ],
      "name": "ERC721InvalidOperator",
      "type": "error"
    },
    {
      "inputs": [
        {
          "internalType": "address",
          "name": "owner",
          "type": "address"
        }
      ],
      "name": "ERC721InvalidOwner",
      "type": "error"
    },
    {
      "inputs": [
        {
          "internalType": "address",
          "name": "receiver",
          "type": "address"
        }
      ],
      "name": "ERC721InvalidReceiver",
      "type": "error"
    },
    {
      "inputs": [
        {
          "internalType": "address",
          "name": "sender",
          "type": "address"
        }
      ],
      "name": "ERC721InvalidSender",
      "type": "error"
    },
    {
      "inputs": [
        {
          "internalType": "uint256",
          "name": "tokenId",
          "type": "uint256"
        }
      ],
      "name": "ERC721NonexistentToken",
      "type": "error"
    },
    {
      "anonymous": false,
      "inputs": [
        {
          "indexed": true,
          "internalType": "address",
          "name": "owner",
          "type": "address"
        },
        {
          "indexed": true,
          "internalType": "address",
          "name": "approved",
          "type": "address"
        },
        {
          "indexed": true,
          "internalType": "uint256",
          "name": "tokenId",
          "type": "uint256"
        }
      ],
      "name": "Approval",
      "type": "event"
    },
    {
      "anonymous": false,
      "inputs": [
        {
          "indexed": true,
          "internalType": "address",
          "name": "owner",
          "type": "address"
        },
        {
          "indexed": true,
          "internalType": "address",
          "name": "operator",
          "type": "address"
        },
        {
          "indexed": false,
          "internalType": "bool",
          "name": "approved",
          "type": "bool"
        }
      ],
      "name": "ApprovalForAll",
      "type": "event"
    },
    {
      "anonymous": false,
      "inputs": [
        {
          "indexed": false,
          "internalType": "uint256",
          "name": "_fromTokenId",
          "type": "uint256"
        },
        {
          "indexed": false,
          "internalType": "uint256",
          "name": "_toTokenId",
          "type": "uint256"
        }
      ],
      "name": "BatchMetadataUpdate",
      "type": "event"
    },
    {
      "anonymous": false,
      "inputs": [
        {
          "indexed": false,
          "internalType": "uint256",
          "name": "_tokenId",
          "type": "uint256"
        }
      ],
      "name": "MetadataUpdate",
      "type": "event"
    },
    {
      "anonymous": false,
      "inputs": [
        {
          "indexed": true,
          "internalType": "address",
          "name": "from",
          "type": "address"
        },
        {
          "indexed": true,
          "internalType": "address",
          "name": "to",
          "type": "address"
        },
        {
          "indexed": true,
          "internalType": "uint256",
          "name": "tokenId",
          "type": "uint256"
        }
      ],
      "name": "Transfer",
      "type": "event"
    },
    {
      "inputs": [
        {
          "internalType": "address",
          "name": "to",
          "type": "address"
        },
        {
          "internalType": "uint256",
          "name": "tokenId",
          "type": "uint256"
        }
      ],
      "name": "approve",
      "outputs": [],
      "stateMutability": "nonpayable",
      "type": "function"
    },
    {
      "inputs": [
        {
          "internalType": "uint256",
          "name": "",
          "type": "uint256"
        }
      ],
      "name": "badgeMonth",
      "outputs": [
        {
          "internalType": "string",
          "name": "",
          "type": "string"
        }
      ],
      "stateMutability": "view",
      "type": "function"
    },
    {
      "inputs": [
        {
          "internalType": "address",
          "name": "owner",
          "type": "address"
        }
      ],
      "name": "balanceOf",
      "outputs": [
        {
          "internalType": "uint256",
          "name": "",
          "type": "uint256"
        }
      ],
      "stateMutability": "view",
      "type": "function"
    },
    {
      "inputs": [
        {
          "internalType": "uint256",
          "name": "tokenId",
          "type": "uint256"
        }
      ],
      "name": "getApproved",
      "outputs": [
        {
          "internalType": "address",
          "name": "",
          "type": "address"
        }
      ],
      "stateMutability": "view",
      "type": "function"
    },
    {
      "inputs": [
        {
          "internalType": "uint256",
          "name": "tokenId",
          "type": "uint256"
        }
      ],
      "name": "getBadgeDate",
      "outputs": [
        {
          "internalType": "string",
          "name": "",
          "type": "string"
        }
      ],
      "stateMutability": "view",
      "type": "function"
    },
    {
      "inputs": [
        {
          "internalType": "address",
          "name": "owner",
          "type": "address"
        },
        {
          "internalType": "address",
          "name": "operator",
          "type": "address"
        }
      ],
      "name": "isApprovedForAll",
      "outputs": [
        {
          "internalType": "bool",
          "name": "",
          "type": "bool"
        }
      ],
      "stateMutability": "view",
      "type": "function"
    },
    {
      "inputs": [
        {
          "internalType": "uint256[2]",
          "name": "a",
          "type": "uint256[2]"
        },
        {
          "internalType": "uint256[2][2]",
          "name": "b",
          "type": "uint256[2][2]"
        },
        {
          "internalType": "uint256[2]",
          "name": "c",
          "type": "uint256[2]"
        },
        {
          "internalType": "uint256[3]",
          "name": "publicSignals",
          "type": "uint256[3]"
        },
        {
          "internalType": "string",
          "name": "artist1",
          "type": "string"
        },
        {
          "internalType": "string",
          "name": "artist2",
          "type": "string"
        },
        {
          "internalType": "string",
          "name": "artist3",
          "type": "string"
        },
        {
          "internalType": "string",
          "name": "ipfsURI",
          "type": "string"
        },
        {
          "internalType": "string",
          "name": "monthYear",
          "type": "string"
        }
      ],
      "name": "mintBadge",
      "outputs": [],
      "stateMutability": "nonpayable",
      "type": "function"
    },
    {
      "inputs": [],
      "name": "name",
      "outputs": [
        {
          "internalType": "string",
          "name": "",
          "type": "string"
        }
      ],
      "stateMutability": "view",
      "type": "function"
    },
    {
      "inputs": [
        {
          "internalType": "uint256",
          "name": "tokenId",
          "type": "uint256"
        }
      ],
      "name": "ownerOf",
      "outputs": [
        {
          "internalType": "address",
          "name": "",
          "type": "address"
        }
      ],
      "stateMutability": "view",
      "type": "function"
    },
    {
      "inputs": [
        {
          "internalType": "address",
          "name": "from",
          "type": "address"
        },
        {
          "internalType": "address",
          "name": "to",
          "type": "address"
        },
        {
          "internalType": "uint256",
          "name": "tokenId",
          "type": "uint256"
        }
      ],
      "name": "safeTransferFrom",
      "outputs": [],
      "stateMutability": "nonpayable",
      "type": "function"
    },
    {
      "inputs": [
        {
          "internalType": "address",
          "name": "from",
          "type": "address"
        },
        {
          "internalType": "address",
          "name": "to",
          "type": "address"
        },
        {
          "internalType": "uint256",
          "name": "tokenId",
          "type": "uint256"
        },
        {
          "internalType": "bytes",
          "name": "data",
          "type": "bytes"
        }
      ],
      "name": "safeTransferFrom",
      "outputs": [],
      "stateMutability": "nonpayable",
      "type": "function"
    },
    {
      "inputs": [
        {
          "internalType": "address",
          "name": "operator",
          "type": "address"
        },
        {
          "internalType": "bool",
          "name": "approved",
          "type": "bool"
        }
      ],
      "name": "setApprovalForAll",
      "outputs": [],
      "stateMutability": "nonpayable",
      "type": "function"
    },
    {
      "inputs": [
        {
          "internalType": "string",
          "name": "s",
          "type": "string"
        }
      ],
      "name": "stringToHash",
      "outputs": [
        {
          "internalType": "uint256",
          "name": "",
          "type": "uint256"
        }
      ],
      "stateMutability": "pure",
      "type": "function"
    },
    {
      "inputs": [
        {
          "internalType": "bytes4",
          "name": "interfaceId",
          "type": "bytes4"
        }
      ],
      "name": "supportsInterface",
      "outputs": [
        {
          "internalType": "bool",
          "name": "",
          "type": "bool"
        }
      ],
      "stateMutability": "view",
      "type": "function"
    },
    {
      "inputs": [],
      "name": "symbol",
      "outputs": [
        {
          "internalType": "string",
          "name": "",
          "type": "string"
        }
      ],
      "stateMutability": "view",
      "type": "function"
    },
    {
      "inputs": [],
      "name": "tokenCounter",
      "outputs": [
        {
          "internalType": "uint256",
          "name": "",
          "type": "uint256"
        }
      ],
      "stateMutability": "view",
      "type": "function"
    },
    {
      "inputs": [
        {
          "internalType": "uint256",
          "name": "tokenId",
          "type": "uint256"
        }
      ],
      "name": "tokenURI",
      "outputs": [
        {
          "internalType": "string",
          "name": "",
          "type": "string"
        }
      ],
      "stateMutability": "view",
      "type": "function"
    },
    {
      "inputs": [
        {
          "internalType": "address",
          "name": "from",
          "type": "address"
        },
        {
          "internalType": "address",
          "name": "to",
          "type": "address"
        },
        {
          "internalType": "uint256",
          "name": "tokenId",
          "type": "uint256"
        }
      ],
      "name": "transferFrom",
      "outputs": [],
      "stateMutability": "nonpayable",
      "type": "function"
    },
    {
      "inputs": [
        {
          "internalType": "bytes32",
          "name": "",
          "type": "bytes32"
        }
      ],
      "name": "usedProofs",
      "outputs": [
        {
          "internalType": "bool",
          "name": "",
          "type": "bool"
        }
      ],
      "stateMutability": "view",
      "type": "function"
    },
    {
      "inputs": [],
      "name": "verifier",
      "outputs": [
        {
          "internalType": "contract Groth16Verifier",
          "name": "",
          "type": "address"
        }
      ],
      "stateMutability": "view",
      "type": "function"
    }
  ],
  "bytecode": "0x608060405234801561001057600080fd5b506040516138bd3803806138bd83398181016040528101906100329190610172565b6040518060400160405280600e81526020017f53706f746966795a4b42616467650000000000000000000000000000000000008152506040518060400160405280600481526020017f53505a4b0000000000000000000000000000000000000000000000000000000081525081600090816100ad91906103ef565b5080600190816100bd91906103ef565b50505080600760006101000a81548173ffffffffffffffffffffffffffffffffffffffff021916908373ffffffffffffffffffffffffffffffffffffffff1602179055506000600a81905550506104c1565b600080fd5b600073ffffffffffffffffffffffffffffffffffffffff82169050919050565b600061013f82610114565b9050919050565b61014f81610134565b811461015a57600080fd5b50565b60008151905061016c81610146565b92915050565b6000602082840312156101885761018761010f565b5b60006101968482850161015d565b91505092915050565b600081519050919050565b7f4e487b7100000000000000000000000000000000000000000000000000000000600052604160045260246000fd5b7f4e487b7100000000000000000000000000000000000000000000000000000000600052602260045260246000fd5b6000600282049050600182168061022057607f821691505b602082108103610233576102326101d9565b5b50919050565b60008190508160005260206000209050919050565b60006020601f8301049050919050565b600082821b905092915050565b60006008830261029b7fffffffffffffffffffffffffffffffffffffffffffffffffffffffffffffffff8261025e565b6102a5868361025e565b95508019841693508086168417925050509392505050565b6000819050919050565b6000819050919050565b60006102ec6102e76102e2846102bd565b6102c7565b6102bd565b9050919050565b6000819050919050565b610306836102d1565b61031a610312826102f3565b84845461026b565b825550505050565b600090565b61032f610322565b61033a8184846102fd565b505050565b5b8181101561035e57610353600082610327565b600181019050610340565b5050565b601f8211156103a35761037481610239565b61037d8461024e565b8101602085101561038c578190505b6103a06103988561024e565b83018261033f565b50505b505050565b600082821c905092915050565b60006103c6600019846008026103a8565b1980831691505092915050565b60006103df83836103b5565b9150826002028217905092915050565b6103f88261019f565b67ffffffffffffffff811115610411576104106101aa565b5b61041b8254610208565b610426828285610362565b600060209050601f8311600181146104595760008415610447578287015190505b61045185826103d3565b8655506104b9565b601f19841661046786610239565b60005b8281101561048f5784890151825560018201915060208501945060208101905061046a565b868310156104ac57848901516104a8601f8916826103b5565b8355505b6001600288020188555050505b505050505050565b6133ed806104d06000396000f3fe608060405234801561001057600080fd5b506004361061012c5760003560e01c8063743439ac116100ad578063c43b0c7f11610071578063c43b0c7f14610367578063c87b56dd14610397578063d082e381146103c7578063e1af3be2146103e5578063e985e9c5146104015761012c565b8063743439ac146102b157806395d89b41146102e1578063a22cb465146102ff578063b88d4fde1461031b578063c30a0f25146103375761012c565b80632b7ac3f3116100f45780632b7ac3f3146101e757806342842e0e1461020557806344fe4096146102215780636352211e1461025157806370a08231146102815761012c565b806301ffc9a71461013157806306fdde0314610161578063081812fc1461017f578063095ea7b3146101af57806323b872dd146101cb575b600080fd5b61014b60048036038101906101469190611e25565b610431565b6040516101589190611e6d565b60405180910390f35b610169610492565b6040516101769190611f18565b60405180910390f35b61019960048036038101906101949190611f70565b610524565b6040516101a69190611fde565b60405180910390f35b6101c960048036038101906101c49190612025565b610540565b005b6101e560048036038101906101e09190612065565b610556565b005b6101ef610658565b6040516101fc9190612117565b60405180910390f35b61021f600480360381019061021a9190612065565b61067e565b005b61023b60048036038101906102369190612267565b61069e565b60405161024891906122bf565b60405180910390f35b61026b60048036038101906102669190611f70565b6106fc565b6040516102789190611fde565b60405180910390f35b61029b600480360381019061029691906122da565b61070e565b6040516102a891906122bf565b60405180910390f35b6102cb60048036038101906102c69190611f70565b6107c8565b6040516102d89190611f18565b60405180910390f35b6102e961086d565b6040516102f69190611f18565b60405180910390f35b61031960048036038101906103149190612333565b6108ff565b005b61033560048036038101906103309190612414565b610915565b005b610351600480360381019061034c91906124cd565b61093a565b60405161035e9190611e6d565b60405180910390f35b610381600480360381019061037c9190611f70565b61095a565b60405161038e9190611f18565b60405180910390f35b6103b160048036038101906103ac9190611f70565b6109fa565b6040516103be9190611f18565b60405180910390f35b6103cf610b0d565b6040516103dc91906122bf565b60405180910390f35b6103ff60048036038101906103fa9190612712565b610b13565b005b61041b6004803603810190610416919061286d565b610e43565b6040516104289190611e6d565b60405180910390f35b6000634906490660e01b7bffffffffffffffffffffffffffffffffffffffffffffffffffffffff1916827bffffffffffffffffffffffffffffffffffffffffffffffffffffffff1916148061048b575061048a82610ed7565b5b9050919050565b6060600080546104a1906128dc565b80601f01602080910402602001604051908101604052809291908181526020018280546104cd906128dc565b801561051a5780601f106104ef5761010080835404028352916020019161051a565b820191906000526020600020905b8154815290600101906020018083116104fd57829003601f168201915b5050505050905090565b600061052f82610fb9565b5061053982611041565b9050919050565b610552828261054d61107e565b611086565b5050565b600073ffffffffffffffffffffffffffffffffffffffff168273ffffffffffffffffffffffffffffffffffffffff16036105c85760006040517f64a0ae920000000000000000000000000000000000000000000000000000000081526004016105bf9190611fde565b60405180910390fd5b60006105dc83836105d761107e565b611098565b90508373ffffffffffffffffffffffffffffffffffffffff168173ffffffffffffffffffffffffffffffffffffffff1614610652578382826040517f64283d7b0000000000000000000000000000000000000000000000000000000081526004016106499392919061290d565b60405180910390fd5b50505050565b600760009054906101000a900473ffffffffffffffffffffffffffffffffffffffff1681565b61069983838360405180602001604052806000815250610915565b505050565b60007f30644e72e131a029b85045b68181585d2833e84879b9709143e1f593f0000001826040516020016106d29190612980565b6040516020818303038152906040528051906020012060001c6106f591906129c6565b9050919050565b600061070782610fb9565b9050919050565b60008073ffffffffffffffffffffffffffffffffffffffff168273ffffffffffffffffffffffffffffffffffffffff16036107815760006040517f89c62b640000000000000000000000000000000000000000000000000000000081526004016107789190611fde565b60405180910390fd5b600360008373ffffffffffffffffffffffffffffffffffffffff1673ffffffffffffffffffffffffffffffffffffffff168152602001908152602001600020549050919050565b60606009600083815260200190815260200160002080546107e8906128dc565b80601f0160208091040260200160405190810160405280929190818152602001828054610814906128dc565b80156108615780601f1061083657610100808354040283529160200191610861565b820191906000526020600020905b81548152906001019060200180831161084457829003601f168201915b50505050509050919050565b60606001805461087c906128dc565b80601f01602080910402602001604051908101604052809291908181526020018280546108a8906128dc565b80156108f55780601f106108ca576101008083540402835291602001916108f5565b820191906000526020600020905b8154815290600101906020018083116108d857829003601f168201915b5050505050905090565b61091161090a61107e565b83836112b2565b5050565b610920848484610556565b61093461092b61107e565b85858585611421565b50505050565b60086020528060005260406000206000915054906101000a900460ff1681565b60096020528060005260406000206000915090508054610979906128dc565b80601f01602080910402602001604051908101604052809291908181526020018280546109a5906128dc565b80156109f25780601f106109c7576101008083540402835291602001916109f2565b820191906000526020600020905b8154815290600101906020018083116109d557829003601f168201915b505050505081565b6060610a0582610fb9565b506000600660008481526020019081526020016000208054610a26906128dc565b80601f0160208091040260200160405190810160405280929190818152602001828054610a52906128dc565b8015610a9f5780601f10610a7457610100808354040283529160200191610a9f565b820191906000526020600020905b815481529060010190602001808311610a8257829003601f168201915b505050505090506000610ab06115d2565b90506000815103610ac5578192505050610b08565b600082511115610afa578082604051602001610ae29291906129f7565b60405160208183030381529060405292505050610b08565b610b03846115e9565b925050505b919050565b600a5481565b6000610b1e8661069e565b90506000610b2b8661069e565b90506000610b388661069e565b90508289600060038110610b4f57610b4e612a1b565b5b602002015114610b94576040517f08c379a0000000000000000000000000000000000000000000000000000000008152600401610b8b90612a96565b60405180910390fd5b8189600160038110610ba957610ba8612a1b565b5b602002015114610bee576040517f08c379a0000000000000000000000000000000000000000000000000000000008152600401610be590612b02565b60405180910390fd5b8089600260038110610c0357610c02612a1b565b5b602002015114610c48576040517f08c379a0000000000000000000000000000000000000000000000000000000008152600401610c3f90612b6e565b60405180910390fd5b600089604051602001610c5b9190612c39565b6040516020818303038152906040528051906020012090506008600082815260200190815260200160002060009054906101000a900460ff1615610cd4576040517f08c379a0000000000000000000000000000000000000000000000000000000008152600401610ccb90612ca0565b60405180910390fd5b600760009054906101000a900473ffffffffffffffffffffffffffffffffffffffff1673ffffffffffffffffffffffffffffffffffffffff166311479fea8e8e8e8e6040518563ffffffff1660e01b8152600401610d359493929190612ecb565b602060405180830381865afa158015610d52573d6000803e3d6000fd5b505050506040513d601f19601f82011682018060405250810190610d769190612f27565b610db5576040517f08c379a0000000000000000000000000000000000000000000000000000000008152600401610dac90612fa0565b60405180910390fd5b60016008600083815260200190815260200160002060006101000a81548160ff021916908315150217905550610ded33600a54611652565b610df9600a548761174b565b8460096000600a5481526020019081526020016000209081610e1b9190613162565b50600a6000815480929190610e2f90613263565b919050555050505050505050505050505050565b6000600560008473ffffffffffffffffffffffffffffffffffffffff1673ffffffffffffffffffffffffffffffffffffffff16815260200190815260200160002060008373ffffffffffffffffffffffffffffffffffffffff1673ffffffffffffffffffffffffffffffffffffffff16815260200190815260200160002060009054906101000a900460ff16905092915050565b60007f80ac58cd000000000000000000000000000000000000000000000000000000007bffffffffffffffffffffffffffffffffffffffffffffffffffffffff1916827bffffffffffffffffffffffffffffffffffffffffffffffffffffffff19161480610fa257507f5b5e139f000000000000000000000000000000000000000000000000000000007bffffffffffffffffffffffffffffffffffffffffffffffffffffffff1916827bffffffffffffffffffffffffffffffffffffffffffffffffffffffff1916145b80610fb25750610fb1826117a7565b5b9050919050565b600080610fc583611811565b9050600073ffffffffffffffffffffffffffffffffffffffff168173ffffffffffffffffffffffffffffffffffffffff160361103857826040517f7e27328900000000000000000000000000000000000000000000000000000000815260040161102f91906122bf565b60405180910390fd5b80915050919050565b60006004600083815260200190815260200160002060009054906101000a900473ffffffffffffffffffffffffffffffffffffffff169050919050565b600033905090565b611093838383600161184e565b505050565b6000806110a484611811565b9050600073ffffffffffffffffffffffffffffffffffffffff168373ffffffffffffffffffffffffffffffffffffffff16146110e6576110e5818486611a13565b5b600073ffffffffffffffffffffffffffffffffffffffff168173ffffffffffffffffffffffffffffffffffffffff16146111775761112860008560008061184e565b6001600360008373ffffffffffffffffffffffffffffffffffffffff1673ffffffffffffffffffffffffffffffffffffffff168152602001908152602001600020600082825403925050819055505b600073ffffffffffffffffffffffffffffffffffffffff168573ffffffffffffffffffffffffffffffffffffffff16146111fa576001600360008773ffffffffffffffffffffffffffffffffffffffff1673ffffffffffffffffffffffffffffffffffffffff168152602001908152602001600020600082825401925050819055505b846002600086815260200190815260200160002060006101000a81548173ffffffffffffffffffffffffffffffffffffffff021916908373ffffffffffffffffffffffffffffffffffffffff160217905550838573ffffffffffffffffffffffffffffffffffffffff168273ffffffffffffffffffffffffffffffffffffffff167fddf252ad1be2c89b69c2b068fc378daa952ba7f163c4a11628f55a4df523b3ef60405160405180910390a4809150509392505050565b600073ffffffffffffffffffffffffffffffffffffffff168273ffffffffffffffffffffffffffffffffffffffff160361132357816040517f5b08ba1800000000000000000000000000000000000000000000000000000000815260040161131a9190611fde565b60405180910390fd5b80600560008573ffffffffffffffffffffffffffffffffffffffff1673ffffffffffffffffffffffffffffffffffffffff16815260200190815260200160002060008473ffffffffffffffffffffffffffffffffffffffff1673ffffffffffffffffffffffffffffffffffffffff16815260200190815260200160002060006101000a81548160ff0219169083151502179055508173ffffffffffffffffffffffffffffffffffffffff168373ffffffffffffffffffffffffffffffffffffffff167f17307eab39ab6107e8899845ad3d59bd9653f200f220920489ca2b5937696c31836040516114149190611e6d565b60405180910390a3505050565b60008373ffffffffffffffffffffffffffffffffffffffff163b11156115cb578273ffffffffffffffffffffffffffffffffffffffff1663150b7a02868685856040518563ffffffff1660e01b81526004016114809493929190613300565b6020604051808303816000875af19250505080156114bc57506040513d601f19601f820116820180604052508101906114b99190613361565b60015b611540573d80600081146114ec576040519150601f19603f3d011682016040523d82523d6000602084013e6114f1565b606091505b50600081510361153857836040517f64a0ae9200000000000000000000000000000000000000000000000000000000815260040161152f9190611fde565b60405180910390fd5b805181602001fd5b63150b7a0260e01b7bffffffffffffffffffffffffffffffffffffffffffffffffffffffff1916817bffffffffffffffffffffffffffffffffffffffffffffffffffffffff1916146115c957836040517f64a0ae920000000000000000000000000000000000000000000000000000000081526004016115c09190611fde565b60405180910390fd5b505b5050505050565b606060405180602001604052806000815250905090565b60606115f482610fb9565b5060006115ff6115d2565b9050600081511161161f576040518060200160405280600081525061164a565b8061162984611ad7565b60405160200161163a9291906129f7565b6040516020818303038152906040525b915050919050565b600073ffffffffffffffffffffffffffffffffffffffff168273ffffffffffffffffffffffffffffffffffffffff16036116c45760006040517f64a0ae920000000000000000000000000000000000000000000000000000000081526004016116bb9190611fde565b60405180910390fd5b60006116d283836000611098565b9050600073ffffffffffffffffffffffffffffffffffffffff168173ffffffffffffffffffffffffffffffffffffffff16146117465760006040517f73c6ac6e00000000000000000000000000000000000000000000000000000000815260040161173d9190611fde565b60405180910390fd5b505050565b8060066000848152602001908152602001600020908161176b9190613162565b507ff8e1a15aba9398e019f0b49df1a4fde98ee17ae345cb5f6b5e2c27f5033e8ce78260405161179b91906122bf565b60405180910390a15050565b60007f01ffc9a7000000000000000000000000000000000000000000000000000000007bffffffffffffffffffffffffffffffffffffffffffffffffffffffff1916827bffffffffffffffffffffffffffffffffffffffffffffffffffffffff1916149050919050565b60006002600083815260200190815260200160002060009054906101000a900473ffffffffffffffffffffffffffffffffffffffff169050919050565b80806118875750600073ffffffffffffffffffffffffffffffffffffffff168273ffffffffffffffffffffffffffffffffffffffff1614155b156119bb57600061189784610fb9565b9050600073ffffffffffffffffffffffffffffffffffffffff168373ffffffffffffffffffffffffffffffffffffffff161415801561190257508273ffffffffffffffffffffffffffffffffffffffff168173ffffffffffffffffffffffffffffffffffffffff1614155b801561191557506119138184610e43565b155b1561195757826040517fa9fbf51f00000000000000000000000000000000000000000000000000000000815260040161194e9190611fde565b60405180910390fd5b81156119b957838573ffffffffffffffffffffffffffffffffffffffff168273ffffffffffffffffffffffffffffffffffffffff167f8c5be1e5ebec7d5bd14f71427d1e84f3dd0314c0f7b2291e5b200ac8c7c3b92560405160405180910390a45b505b836004600085815260200190815260200160002060006101000a81548173ffffffffffffffffffffffffffffffffffffffff021916908373ffffffffffffffffffffffffffffffffffffffff16021790555050505050565b611a1e838383611ba5565b611ad257600073ffffffffffffffffffffffffffffffffffffffff168373ffffffffffffffffffffffffffffffffffffffff1603611a9357806040517f7e273289000000000000000000000000000000000000000000000000000000008152600401611a8a91906122bf565b60405180910390fd5b81816040517f177e802f000000000000000000000000000000000000000000000000000000008152600401611ac992919061338e565b60405180910390fd5b505050565b606060006001611ae684611c66565b01905060008167ffffffffffffffff811115611b0557611b0461213c565b5b6040519080825280601f01601f191660200182016040528015611b375781602001600182028036833780820191505090505b509050600082602001820190505b600115611b9a578080600190039150507f3031323334353637383961626364656600000000000000000000000000000000600a86061a8153600a8581611b8e57611b8d612997565b5b04945060008503611b45575b819350505050919050565b60008073ffffffffffffffffffffffffffffffffffffffff168373ffffffffffffffffffffffffffffffffffffffff1614158015611c5d57508273ffffffffffffffffffffffffffffffffffffffff168473ffffffffffffffffffffffffffffffffffffffff161480611c1e5750611c1d8484610e43565b5b80611c5c57508273ffffffffffffffffffffffffffffffffffffffff16611c4483611041565b73ffffffffffffffffffffffffffffffffffffffff16145b5b90509392505050565b600080600090507a184f03e93ff9f4daa797ed6e38ed64bf6a1f0100000000000000008310611cc4577a184f03e93ff9f4daa797ed6e38ed64bf6a1f0100000000000000008381611cba57611cb9612997565b5b0492506040810190505b6d04ee2d6d415b85acef81000000008310611d01576d04ee2d6d415b85acef81000000008381611cf757611cf6612997565b5b0492506020810190505b662386f26fc100008310611d3057662386f26fc100008381611d2657611d25612997565b5b0492506010810190505b6305f5e1008310611d59576305f5e1008381611d4f57611d4e612997565b5b0492506008810190505b6127108310611d7e576127108381611d7457611d73612997565b5b0492506004810190505b60648310611da15760648381611d9757611d96612997565b5b0492506002810190505b600a8310611db0576001810190505b80915050919050565b6000604051905090565b600080fd5b600080fd5b60007fffffffff0000000000000000000000000000000000000000000000000000000082169050919050565b611e0281611dcd565b8114611e0d57600080fd5b50565b600081359050611e1f81611df9565b92915050565b600060208284031215611e3b57611e3a611dc3565b5b6000611e4984828501611e10565b91505092915050565b60008115159050919050565b611e6781611e52565b82525050565b6000602082019050611e826000830184611e5e565b92915050565b600081519050919050565b600082825260208201905092915050565b60005b83811015611ec2578082015181840152602081019050611ea7565b60008484015250505050565b6000601f19601f8301169050919050565b6000611eea82611e88565b611ef48185611e93565b9350611f04818560208601611ea4565b611f0d81611ece565b840191505092915050565b60006020820190508181036000830152611f328184611edf565b905092915050565b6000819050919050565b611f4d81611f3a565b8114611f5857600080fd5b50565b600081359050611f6a81611f44565b92915050565b600060208284031215611f8657611f85611dc3565b5b6000611f9484828501611f5b565b91505092915050565b600073ffffffffffffffffffffffffffffffffffffffff82169050919050565b6000611fc882611f9d565b9050919050565b611fd881611fbd565b82525050565b6000602082019050611ff36000830184611fcf565b92915050565b61200281611fbd565b811461200d57600080fd5b50565b60008135905061201f81611ff9565b92915050565b6000806040838503121561203c5761203b611dc3565b5b600061204a85828601612010565b925050602061205b85828601611f5b565b9150509250929050565b60008060006060848603121561207e5761207d611dc3565b5b600061208c86828701612010565b935050602061209d86828701612010565b92505060406120ae86828701611f5b565b9150509250925092565b6000819050919050565b60006120dd6120d86120d384611f9d565b6120b8565b611f9d565b9050919050565b60006120ef826120c2565b9050919050565b6000612101826120e4565b9050919050565b612111816120f6565b82525050565b600060208201905061212c6000830184612108565b92915050565b600080fd5b600080fd5b7f4e487b7100000000000000000000000000000000000000000000000000000000600052604160045260246000fd5b61217482611ece565b810181811067ffffffffffffffff821117156121935761219261213c565b5b80604052505050565b60006121a6611db9565b90506121b2828261216b565b919050565b600067ffffffffffffffff8211156121d2576121d161213c565b5b6121db82611ece565b9050602081019050919050565b82818337600083830152505050565b600061220a612205846121b7565b61219c565b90508281526020810184848401111561222657612225612137565b5b6122318482856121e8565b509392505050565b600082601f83011261224e5761224d612132565b5b813561225e8482602086016121f7565b91505092915050565b60006020828403121561227d5761227c611dc3565b5b600082013567ffffffffffffffff81111561229b5761229a611dc8565b5b6122a784828501612239565b91505092915050565b6122b981611f3a565b82525050565b60006020820190506122d460008301846122b0565b92915050565b6000602082840312156122f0576122ef611dc3565b5b60006122fe84828501612010565b91505092915050565b61231081611e52565b811461231b57600080fd5b50565b60008135905061232d81612307565b92915050565b6000806040838503121561234a57612349611dc3565b5b600061235885828601612010565b92505060206123698582860161231e565b9150509250929050565b600067ffffffffffffffff82111561238e5761238d61213c565b5b61239782611ece565b9050602081019050919050565b60006123b76123b284612373565b61219c565b9050828152602081018484840111156123d3576123d2612137565b5b6123de8482856121e8565b509392505050565b600082601f8301126123fb576123fa612132565b5b813561240b8482602086016123a4565b91505092915050565b6000806000806080858703121561242e5761242d611dc3565b5b600061243c87828801612010565b945050602061244d87828801612010565b935050604061245e87828801611f5b565b925050606085013567ffffffffffffffff81111561247f5761247e611dc8565b5b61248b878288016123e6565b91505092959194509250565b6000819050919050565b6124aa81612497565b81146124b557600080fd5b50565b6000813590506124c7816124a1565b92915050565b6000602082840312156124e3576124e2611dc3565b5b60006124f1848285016124b8565b91505092915050565b600067ffffffffffffffff8211156125155761251461213c565b5b602082029050919050565b600080fd5b6000612538612533846124fa565b61219c565b9050806020840283018581111561255257612551612520565b5b835b8181101561257b57806125678882611f5b565b845260208401935050602081019050612554565b5050509392505050565b600082601f83011261259a57612599612132565b5b60026125a7848285612525565b91505092915050565b600067ffffffffffffffff8211156125cb576125ca61213c565b5b602082029050919050565b60006125e96125e4846125b0565b61219c565b9050806040840283018581111561260357612602612520565b5b835b8181101561262c57806126188882612585565b845260208401935050604081019050612605565b5050509392505050565b600082601f83011261264b5761264a612132565b5b60026126588482856125d6565b91505092915050565b600067ffffffffffffffff82111561267c5761267b61213c565b5b602082029050919050565b600061269a61269584612661565b61219c565b905080602084028301858111156126b4576126b3612520565b5b835b818110156126dd57806126c98882611f5b565b8452602084019350506020810190506126b6565b5050509392505050565b600082601f8301126126fc576126fb612132565b5b6003612709848285612687565b91505092915050565b60008060008060008060008060006102008a8c03121561273557612734611dc3565b5b60006127438c828d01612585565b99505060406127548c828d01612636565b98505060c06127658c828d01612585565b9750506101006127778c828d016126e7565b9650506101608a013567ffffffffffffffff81111561279957612798611dc8565b5b6127a58c828d01612239565b9550506101808a013567ffffffffffffffff8111156127c7576127c6611dc8565b5b6127d38c828d01612239565b9450506101a08a013567ffffffffffffffff8111156127f5576127f4611dc8565b5b6128018c828d01612239565b9350506101c08a013567ffffffffffffffff81111561282357612822611dc8565b5b61282f8c828d01612239565b9250506101e08a013567ffffffffffffffff81111561285157612850611dc8565b5b61285d8c828d01612239565b9150509295985092959850929598565b6000806040838503121561288457612883611dc3565b5b600061289285828601612010565b92505060206128a385828601612010565b9150509250929050565b7f4e487b7100000000000000000000000000000000000000000000000000000000600052602260045260246000fd5b600060028204905060018216806128f457607f821691505b602082108103612907576129066128ad565b5b50919050565b60006060820190506129226000830186611fcf565b61292f60208301856122b0565b61293c6040830184611fcf565b949350505050565b600081905092915050565b600061295a82611e88565b6129648185612944565b9350612974818560208601611ea4565b80840191505092915050565b600061298c828461294f565b915081905092915050565b7f4e487b7100000000000000000000000000000000000000000000000000000000600052601260045260246000fd5b60006129d182611f3a565b91506129dc83611f3a565b9250826129ec576129eb612997565b5b828206905092915050565b6000612a03828561294f565b9150612a0f828461294f565b91508190509392505050565b7f4e487b7100000000000000000000000000000000000000000000000000000000600052603260045260246000fd5b7f41727469737431206d69736d6174636800000000000000000000000000000000600082015250565b6000612a80601083611e93565b9150612a8b82612a4a565b602082019050919050565b60006020820190508181036000830152612aaf81612a73565b9050919050565b7f41727469737432206d69736d6174636800000000000000000000000000000000600082015250565b6000612aec601083611e93565b9150612af782612ab6565b602082019050919050565b60006020820190508181036000830152612b1b81612adf565b9050919050565b7f41727469737433206d69736d6174636800000000000000000000000000000000600082015250565b6000612b58601083611e93565b9150612b6382612b22565b602082019050919050565b60006020820190508181036000830152612b8781612b4b565b9050919050565b600060039050919050565b600081905092915050565b6000819050919050565b612bb781611f3a565b82525050565b6000612bc98383612bae565b60208301905092915050565b6000602082019050919050565b612beb81612b8e565b612bf58184612b99565b9250612c0082612ba4565b8060005b83811015612c31578151612c188782612bbd565b9650612c2383612bd5565b925050600181019050612c04565b505050505050565b6000612c458284612be2565b60608201915081905092915050565b7f50726f6f6620616c726561647920757365640000000000000000000000000000600082015250565b6000612c8a601283611e93565b9150612c9582612c54565b602082019050919050565b60006020820190508181036000830152612cb981612c7d565b9050919050565b600060029050919050565b600081905092915050565b6000819050919050565b612ce981611f3a565b82525050565b6000612cfb8383612ce0565b60208301905092915050565b6000602082019050919050565b612d1d81612cc0565b612d278184612ccb565b9250612d3282612cd6565b8060005b83811015612d63578151612d4a8782612cef565b9650612d5583612d07565b925050600181019050612d36565b505050505050565b600060029050919050565b600081905092915050565b6000819050919050565b600081905092915050565b612d9f81612cc0565b612da98184612d8b565b9250612db482612cd6565b8060005b83811015612de5578151612dcc8782612cef565b9650612dd783612d07565b925050600181019050612db8565b505050505050565b6000612df98383612d96565b60408301905092915050565b6000602082019050919050565b612e1b81612d6b565b612e258184612d76565b9250612e3082612d81565b8060005b83811015612e61578151612e488782612ded565b9650612e5383612e05565b925050600181019050612e34565b505050505050565b600081905092915050565b612e7d81612b8e565b612e878184612e69565b9250612e9282612ba4565b8060005b83811015612ec3578151612eaa8782612cef565b9650612eb583612bd5565b925050600181019050612e96565b505050505050565b600061016082019050612ee16000830187612d14565b612eee6040830186612e12565b612efb60c0830185612d14565b612f09610100830184612e74565b95945050505050565b600081519050612f2181612307565b92915050565b600060208284031215612f3d57612f3c611dc3565b5b6000612f4b84828501612f12565b91505092915050565b7f496e76616c69642070726f6f6600000000000000000000000000000000000000600082015250565b6000612f8a600d83611e93565b9150612f9582612f54565b602082019050919050565b60006020820190508181036000830152612fb981612f7d565b9050919050565b60008190508160005260206000209050919050565b60006020601f8301049050919050565b600082821b905092915050565b6000600883026130227fffffffffffffffffffffffffffffffffffffffffffffffffffffffffffffffff82612fe5565b61302c8683612fe5565b95508019841693508086168417925050509392505050565b600061305f61305a61305584611f3a565b6120b8565b611f3a565b9050919050565b6000819050919050565b61307983613044565b61308d61308582613066565b848454612ff2565b825550505050565b600090565b6130a2613095565b6130ad818484613070565b505050565b5b818110156130d1576130c660008261309a565b6001810190506130b3565b5050565b601f821115613116576130e781612fc0565b6130f084612fd5565b810160208510156130ff578190505b61311361310b85612fd5565b8301826130b2565b50505b505050565b600082821c905092915050565b60006131396000198460080261311b565b1980831691505092915050565b60006131528383613128565b9150826002028217905092915050565b61316b82611e88565b67ffffffffffffffff8111156131845761318361213c565b5b61318e82546128dc565b6131998282856130d5565b600060209050601f8311600181146131cc57600084156131ba578287015190505b6131c48582613146565b86555061322c565b601f1984166131da86612fc0565b60005b82811015613202578489015182556001820191506020850194506020810190506131dd565b8683101561321f578489015161321b601f891682613128565b8355505b6001600288020188555050505b505050505050565b7f4e487b7100000000000000000000000000000000000000000000000000000000600052601160045260246000fd5b600061326e82611f3a565b91507fffffffffffffffffffffffffffffffffffffffffffffffffffffffffffffffff82036132a05761329f613234565b5b600182019050919050565b600081519050919050565b600082825260208201905092915050565b60006132d2826132ab565b6132dc81856132b6565b93506132ec818560208601611ea4565b6132f581611ece565b840191505092915050565b60006080820190506133156000830187611fcf565b6133226020830186611fcf565b61332f60408301856122b0565b818103606083015261334181846132c7565b905095945050505050565b60008151905061335b81611df9565b92915050565b60006020828403121561337757613376611dc3565b5b60006133858482850161334c565b91505092915050565b60006040820190506133a36000830185611fcf565b6133b060208301846122b0565b939250505056fea2646970667358221220059eb938f520298db3e7e170104dd50c2f52982414d1c5638469a83d158b9e0064736f6c634300081c0033",
  "linkReferences": {},
  "deployedLinkReferences": {}
}